:020000040000FA
:100000000C9462000C948A000C948A000C948A0070
:100010000C948A000C948A000C948A000C948A0038
:100020000C948A000C948A000C948A000C948A0028
:100030000C948A000C948A000C948A000C948A0018
:100040000C94A3030C948A000C9413040C94ED03F9
:100050000C948A000C948A000C948A000C948A00F8
:100060000C948A000C948A000000000024002700F1
:100070002A000000000023002600290000000000E4
:10008000250028002B0004040404040404040202D4
:100090000202020203030303030301020408102007
:1000A0004080010204081020010204081020000012
:1000B0000008000201000003040700000000000027
:1000C0000000CA0611241FBECFEFD8E0DEBFCDBFAF
:1000D00012E0A0E0B1E0E2E4FEE002C005900D9283
:1000E000A83CB107D9F723E0A8ECB2E001C01D920B
:1000F000A038B207E1F710E0C2E6D0E004C02197D3
:10010000FE010E941907C136D107C9F70E944504B4
:100110000C941F070C940000CF92DF92EF92FF9295
:100120006B017C01E091F302F091F40282E08083A4
:10013000C11481EED806E104F104A1F060E079E099
:100140008DE390E0A70196010E94F7062150310946
:10015000410951095695479537952795211580E115
:100160003807A8F0E091F302F091F402108260E801
:1001700074E88EE190E0A70196010E94F7062150F5
:100180003109410951095695479537952795E091D1
:10019000EF02F091F0023083E091F102F091F2026F
:1001A00020831092FB02E091F702F091F80286E0C2
:1001B0008083E091F502F091F60280818061808376
:1001C000E091F502F091F602808188608083E091F1
:1001D000F502F091F602808180688083E091F5025B
:1001E000F091F60280818F7D8083FF90EF90DF9009
:1001F000CF900895833081F028F4813099F08230D7
:10020000A9F008958730A9F08830C9F08430B1F49E
:10021000809180008F7D03C0809180008F778093D4
:100220008000089584B58F7784BD089584B58F7D4F
:10023000FBCF8091B0008F778093B00008958091BC
:10024000B0008F7DF9CF1F93CF93DF93EBEBF0E0FE
:100250009491E7EAF0E0D491E3E9F0E0C491CC2393
:10026000B9F0182F992319F0892F0E94FA00EC2F6A
:10027000F0E0EE0FFF1FE458FF4FA591B4918FB748
:10028000F894EC91111108C0D095DE23DC938FBF58
:10029000DF91CF911F910895DE2BF8CFCF93DF939D
:1002A000E0EBF0E08491ECE9F0E0D491E8E8F0E0F4
:1002B000C491CC23A1F081110E94FA00EC2FF0E050
:1002C000EE0FFF1FEE58FF4FA591B491EC91ED2377
:1002D00081E090E009F480E0DF91CF91089580E023
:1002E00090E0FACF3FB7F8948091DF029091E0025E
:1002F000A091E102B091E20226B5A89B05C02F3F74
:1003000019F00196A11DB11D3FBFBA2FA92F982F3B
:100310008827BC01CD01620F711D811D911D42E036
:10032000660F771F881F991F4A95D1F708958F92FE
:100330009F92AF92BF92CF92DF92EF92FF926B01AA
:100340007C010E9472014B015C01C114D104E104E3
:10035000F104B9F00E947201681979098A099B09B0
:10036000683E73408105910580F321E0C21AD108EF
:10037000E108F10888EE880E83E0981EA11CB11CEC
:10038000E4CFFF90EF90DF90CF90BF90AF909F9021
:100390008F9008952FB7F8946091DB027091DC0282
:1003A0008091DD029091DE022FBF0895AF92BF923F
:1003B000CF92DF92EF92FF920F931F93CF93DF9331
:1003C0006C017B018B01040F151FEB015E01AE1860
:1003D000BF08C017D10759F06991D601ED91FC9182
:1003E0000190F081E02DC6010995892B79F7C501AF
:1003F000DF91CF911F910F91FF90EF90DF90CF9001
:10040000BF90AF900895FC01538D448D252F30E0AF
:10041000842F90E0821B930B541710F0CF96089511
:1004200001970895FC01918D828D981761F0A28D3E
:10043000AE0FBF2FB11D5D968C91928D9F5F9F7304
:10044000928F90E008958FEF9FEF0895FC01918DBA
:10045000828D981731F0828DE80FF11D858D90E027
:1004600008958FEF9FEF0895FC01918D228D892FC4
:1004700090E0805C9F4F821B91098F7399270895AC
:1004800083EE92E00E94340221E0892B09F420E0FF
:10049000822F089580E090E0892B29F00E9440028D
:1004A00081110C9400000895FC01A48DA80FB92FB0
:1004B000B11DA35ABF4F2C91848D90E001968F738C
:1004C0009927848FA689B7892C93A089B1898C91AB
:1004D000837080648C93938D848D981306C00288FA
:1004E000F389E02D80818F7D80830895EF92FF92C4
:1004F0000F931F93CF93DF93EC0181E0888F9B8D47
:100500008C8D98131AC0E889F989808185FF15C000
:100510009FB7F894EE89FF896083E889F989808123
:100520008370806480839FBF81E090E0DF91CF91F2
:100530001F910F91FF90EF900895F62E0B8D10E014
:100540000F5F1F4F0F731127E02E8C8D8E110CC083
:100550000FB607FCFACFE889F989808185FFF5CFCE
:10056000CE010E945402F1CFEB8DEC0FFD2FF11D57
:10057000E35AFF4FF0829FB7F8940B8FEA89FB890B
:1005800080818062CFCFCF93DF93EC01888D882369
:10059000B9F0AA89BB89E889F9898C9185FD03C0E6
:1005A000808186FD0DC00FB607FCF7CF8C9185FFCB
:1005B000F2CF808185FFEDCFCE010E945402E9CFBA
:1005C000DF91CF910895CF92DF92EF92FF920F9338
:1005D0001F93CF93DF938C01D0E0C0E06B01770FC6
:1005E000EE08FF0881E00E942301C701B6010E94C6
:1005F000970180E00E942301C701B6010E94970184
:1006000021960C171D0771F7DF91CF911F910F9164
:10061000FF90EF90DF90CF900895FC0101900020B3
:10062000E9F73197AF01481B590BBC0183EE92E00B
:100630000C94D601CF93DF930E940D03EC018CE163
:1006400091E00E940D038C0F9D1FDF91CF910895C3
:100650008F929F92AF92BF92CF92DF92EF92FF92D2
:100660000F931F93CF93DF93CDB7DEB7A1970FB64C
:10067000F894DEBF0FBECDBF6B017C01F7FE41C019
:100680006DE283EE92E00E9476028C0122273327EE
:10069000A9012C193D094E095F0919A2CE018196C5
:1006A0007C019AE0892E912CA12CB12CCA01B901B0
:1006B000A50194010E94F706605DF70162937F0136
:1006C000211531054105510589F790E080E030970B
:1006D00019F0CF010E940D03800F911FA1960FB654
:1006E000F894DEBF0FBECDBFDF91CF911F910F9168
:1006F000FF90EF90DF90CF90BF90AF909F908F9042
:100700000895AC019B0119A28E010F5D1F4F8AE075
:10071000C82ED12CE12CF12CCA01B901A7019601F8
:100720000E94F706605DF80162938F012115310583
:100730004105510589F790E080E0309779F2CF01CB
:100740000E940D03CBCF1F920F920FB60F92112470
:100750002F933F938F939F93AF93BF938091DB022F
:100760009091DC02A091DD02B091DE023091DA02BC
:1007700023E0230F2D3758F50196A11DB11D2093BD
:10078000DA028093DB029093DC02A093DD02B09347
:10079000DE028091DF029091E002A091E102B0912F
:1007A000E2020196A11DB11D8093DF029093E00249
:1007B000A093E102B093E202BF91AF919F918F911C
:1007C0003F912F910F900FBE0F901F90189526E824
:1007D000230F0296A11DB11DD2CF1F920F920FB60B
:1007E0000F9211242F933F934F935F936F937F93B7
:1007F0008F939F93AF93BF93EF93FF9383EE92E01A
:100800000E945402FF91EF91BF91AF919F918F9100
:100810007F916F915F914F913F912F910F900FBEFC
:100820000F901F9018951F920F920FB60F921124E0
:100830002F938F939F93EF93FF93E091F302F091A7
:10084000F4028081E091F902F091FA0282FD1BC06E
:1008500090818091FC028F5F8F732091FD0282173F
:1008600041F0E091FC02F0E0ED51FD4F958F809357
:10087000FC02FF91EF919F918F912F910F900FBEEE
:100880000F901F9018958081F4CF789484B5826082
:1008900084BD84B5816084BD85B5826085BD85B524
:1008A000816085BD80916E00816080936E001092A2
:1008B000810080918100826080938100809181001D
:1008C00081608093810080918000816080938000AE
:1008D0008091B10084608093B1008091B00081600C
:1008E0008093B00080917A00846080937A00809138
:1008F0007A00826080937A0080917A008160809390
:100900007A0080917A00806880937A001092C1000A
:10091000E7EAF0E02491E3E9F0E08491882399F09C
:1009200090E0880F991FFC01E859FF4FA591B49101
:10093000FC01E458FF4F859194918FB7F894EC91A6
:10094000E22BEC938FBFECE9F0E02491E8E8F0E0D3
:1009500084918823C1F090E0880F991FFC01E85929
:10096000FF4FC591D491FC01E458FF4FA591B4917C
:100970009FB7F8943881822F809583238883EC91E8
:10098000E22BEC939FBF6091000170910101809177
:100990000201909103010E948C008FE191E00E947E
:1009A0001A038AE391E00E940D03609100017091A7
:1009B000010180910201909103010E9428038CE1C2
:1009C00091E00E940D0380E00E94230180E0682EE8
:1009D00080E0782E55245394C12C92ECD92EEE242D
:1009E000E394F12C20E8822E25E2922EA12CB12C4A
:1009F0000E944E01EC01892B09F0A4C080910801EE
:100A0000909109010197D1F462E370E080E090E0F9
:100A10000E9497010E944E01EC01892B09F092C0BF
:100A20000E94CA016093D6027093D7028093D802C5
:100A30009093D9025092D5021092D4028091D5029F
:100A40008823E1F18091D402811138C00091D20253
:100A50001091D3020E94CA012091D6023091D70290
:100A60004091D8025091D902621B730B840B950BF5
:100A7000693B7B408105910508F1012B09F0A9C074
:100A800081E090E09093D3028093D2028EE591E0D2
:100A90000E941A038EE791E00E941A0384EA91E013
:100AA0000E941A036BE470E085E090E00E94E3028C
:100AB0001092D1021092D0025092D402D093090128
:100AC000C09308018091D2029091D302892B09F042
:100AD000F5C00E94CA010091C8021091C90220917C
:100AE000CA023091CB02601B710B820B930B613DEC
:100AF000774081059105D0F08EE192E00E941A03C3
:100B000081E00E94230162E370E080E090E00E94B7
:100B1000970180E00E9423010E94CA016093C802ED
:100B20007093C9028093CA029093CB02611471043E
:100B300009F45ECF0E944002882309F459CF0E9435
:100B4000000056CFC130D10509F078CF809108015F
:100B500090910901892B09F071CF8091D5028823EA
:100B6000A9F18091D402811131C08091D20290917B
:100B7000D302019759F58091D0029091D10201964C
:100B80009093D1028093D0020E94CA016093CC025C
:100B90007093CD028093CE029093CF0284E591E0D2
:100BA0000E940D036091D0027091D102072E000CBB
:100BB000880B990B0E9428038CE191E00E940D03A1
:100BC00062E370E081E090E00E94E3021092D502BF
:100BD00035CF1092D3021092D2028AEB91E00E949C
:100BE0001A038091040190910501A0910601B09132
:100BF0000701409100015091010160910201709143
:100C0000030184179507A607B70709F44CC0809322
:100C1000000190930101A0930201B09303018CEDB8
:100C200091E00E940D03609100017091010180919B
:100C30000201909103010E9428038CE191E00E943F
:100C40000D0383EE92E00E94C302E091F502F09161
:100C5000F60280818F7E8083E091F502F091F602AA
:100C60008081877F8083E091F502F091F602808198
:100C70008F778083E091F502F091F60280818F7D7D
:100C800080838091FD028093FC026091000170914D
:100C9000010180910201909103010E948C0084EF78
:100CA00091E00E941A038DE092E00E941A036CE228
:100CB00071E082E090E00E94E302FECE8091D002DB
:100CC0009091D102181619060CF030CF0E94CA017B
:100CD0000091CC021091CD022091CE023091CF0232
:100CE000601B710B820B930B6D3D75408105910567
:100CF00008F41CCF8CE392E00E940D036091D002B7
:100D00007091D102072E000C880B990B0E942803CA
:100D100083E492E00E941A038091D0029091D10264
:100D200081309105D9F48092040190920501A0923E
:100D30000601B09207018EE492E00E941A036AEF66
:100D400070E081E090E00E94E30287E992E00E9477
:100D50001A031092D1021092D002E8CE029789F4C1
:100D6000C0920401D0920501E0920601F0920701C1
:100D700083E692E00E941A036AEF70E082E090E05E
:100D8000E2CF8AE792E00E941A0364E670E083E013
:100D900090E0D9CFE3EEF2E01382128288EE93E086
:100DA000A0E0B0E084839583A683B7838EE091E0D2
:100DB0009183808385EC90E09587848784EC90E034
:100DC0009787868780EC90E0918B808B81EC90E018
:100DD000938B828B82EC90E0958B848B86EC90E0F9
:100DE000978B868B118E128E138E148E0895A1E22E
:100DF0001A2EAA1BBB1BFD010DC0AA1FBB1FEE1F95
:100E0000FF1FA217B307E407F50720F0A21BB30BDF
:100E1000E40BF50B661F771F881F991F1A9469F75B
:100E200060957095809590959B01AC01BD01CF01B7
:100E30000895EE0FFF1F0590F491E02D0994F894AA
:100E4000FFCF802500008025000001000000000089
:100E50007602D6010302C3023402120226020D0AF0
:100E6000002D2D2D2048652074686F6E67206B68FB
:100E70006F6920646F6E67202D2D2D0043686520FB
:100E8000646F3A2056414E2048414E48207C204213
:100E90006175643A20004461206E68616E3A2000FA
:100EA0000A2D2D2D2044412056414F2043484520F6
:100EB000444F204341552048494E48202D2D2D00B8
:100EC0004E68616E2031206C616E3A2039363030C8
:100ED000207C204E68616E2032206C616E3A203199
:100EE0003135323030004E68616E206769752033CD
:100EF000732064652074686F61742E000A2D2D2D97
:100F00002044412054484F41542043484520444FF9
:100F1000204341552048494E48202D2D2D00417039
:100F20002064756E6720426175642052617465208B
:100F30006D6F693A200053657269616C20646120AD
:100F40006B686F6920646F6E67206C616921004374
:100F5000686520646F3A2056414E2048414E480053
:100F600044616E6720686F617420646F6E672062F1
:100F7000696E68207468756F6E672E2E2E00587526
:100F8000206C792000206C616E206E68616E3A00E2
:100F90003E3E2044612063686F6E3A20393630301F
:100FA00020627073003E3E2044612063686F6E3A99
:100FB0002031313532303020627073003E3E205394
:100FC0006F206C616E206E68616E206B686F6E675B
:100FD00020686F70206C6521002D2D2D20567569BD
:100FE000206C6F6E672063686F6E206C616920688B
:100FF0006F6163206E68616E20676975206465208B
:0A10000074686F6174202D2D2D001F
:107E0000112484B714BE81FFF0D085E080938100F7
:107E100082E08093C00088E18093C10086E0809377
:107E2000C20080E18093C4008EE0C9D0259A86E02C
:107E300020E33CEF91E0309385002093840096BBD3
:107E4000B09BFECF1D9AA8958150A9F7CC24DD24C4
:107E500088248394B5E0AB2EA1E19A2EF3E0BF2EE7
:107E6000A2D0813461F49FD0082FAFD0023811F036
:107E7000013811F484E001C083E08DD089C08234E0
:107E800011F484E103C0853419F485E0A6D080C0E4
:107E9000853579F488D0E82EFF2485D0082F10E0AE
:107EA000102F00270E291F29000F111F8ED06801E7
:107EB0006FC0863521F484E090D080E0DECF843638
:107EC00009F040C070D06FD0082F6DD080E0C81688
:107ED00080E7D80618F4F601B7BEE895C0E0D1E017
:107EE00062D089930C17E1F7F0E0CF16F0E7DF06D8
:107EF00018F0F601B7BEE89568D007B600FCFDCFD4
:107F0000A601A0E0B1E02C9130E011968C91119780
:107F100090E0982F8827822B932B1296FA010C0160
:107F200087BEE89511244E5F5F4FF1E0A038BF0790
:107F300051F7F601A7BEE89507B600FCFDCF97BE46
:107F4000E89526C08437B1F42ED02DD0F82E2BD052
:107F50003CD0F601EF2C8F010F5F1F4F84911BD097
:107F6000EA94F801C1F70894C11CD11CFA94CF0C13
:107F7000D11C0EC0853739F428D08EE10CD085E9AC
:107F80000AD08FE07ACF813511F488E018D01DD067
:107F900080E101D065CF982F8091C00085FFFCCF94
:107FA0009093C60008958091C00087FFFCCF809118
:107FB000C00084FD01C0A8958091C6000895E0E648
:107FC000F0E098E1908380830895EDDF803219F02E
:107FD00088E0F5DFFFCF84E1DECF1F93182FE3DFCA
:107FE0001150E9F7F2DF1F91089580E0E8DFEE27F6
:047FF000FF270994CA
:027FFE00040479
:00000001FF
