:100000000C9435000C945D000C945D000C945D0024
:100010000C945D000C945D000C945D000C945D00EC
:100020000C945D000C945D000C945D000C945D00DC
:100030000C945D000C945D000C945D000C945D00CC
:100040000C9491010C945D000C9401020C94DB0162
:100050000C945D000C945D000C945D000C945D00AC
:100060000C945D000C945D00EB0211241FBECFEFD9
:10007000D8E0DEBFCDBF11E0A0E0B1E0E0E4F6E003
:1000800002C005900D92A432B107D9F721E0A4E295
:10009000B1E001C01D92AA3CB207E1F710E0C5E350
:1000A000D0E004C02197FE010E941803C433D10799
:1000B000C9F70E9433020C941E030C9400003FB752
:1000C000F8948091C6019091C701A091C801B091A8
:1000D000C90126B5A89B05C02F3F19F00196A11DA7
:1000E000B11D3FBFBA2FA92F982F8827BC01CD0182
:1000F000620F711D811D911D42E0660F771F881FE1
:10010000991F4A95D1F70895AF92BF92CF92DF928F
:10011000EF92FF920F931F93CF93DF936C017B01BC
:100120008B01040F151FEB015E01AE18BF08C0174D
:10013000D10759F06991D601ED91FC910190F081C0
:10014000E02DC6010995892B79F7C501DF91CF9183
:100150001F910F91FF90EF90DF90CF90BF90AF90E5
:100160000895FC01538D448D252F30E0842F90E0BD
:10017000821B930B541710F0CF96089501970895A2
:10018000FC01918D828D981761F0A28DAE0FBF2F6B
:10019000B11D5D968C91928D9F5F9F73928F90E0C1
:1001A00008958FEF9FEF0895FC01918D828D981730
:1001B00031F0828DE80FF11D858D90E008958FEF6D
:1001C0009FEF0895FC01918D228D892F90E0805C36
:1001D0009F4F821B91098F739927089584E291E0C4
:1001E0000E94E20021E0892B09F420E0822F08958B
:1001F00080E090E0892B29F00E94EE0081110C94A0
:1002000000000895FC01A48DA80FB92FB11DA35AB9
:10021000BF4F2C91848D90E001968F739927848F26
:10022000A689B7892C93A089B1898C918370806449
:100230008C93938D848D981306C00288F389E02DEA
:1002400080818F7D80830895EF92FF920F931F939B
:10025000CF93DF93EC0181E0888F9B8D8C8D981379
:100260001AC0E889F989808185FF15C09FB7F89485
:10027000EE89FF896083E889F989808183708064D1
:1002800080839FBF81E090E0DF91CF911F910F911C
:10029000FF90EF900895F62E0B8D10E00F5F1F4F2B
:1002A0000F731127E02E8C8D8E110CC00FB607FC3A
:1002B000FACFE889F989808185FFF5CFCE010E94C8
:1002C0000201F1CFEB8DEC0FFD2FF11DE35AFF4F33
:1002D000F0829FB7F8940B8FEA89FB898081806256
:1002E000CFCFCF93DF93EC01888D8823B9F0AA8913
:1002F000BB89E889F9898C9185FD03C0808186FDE1
:100300000DC00FB607FCF7CF8C9185FFF2CF80812F
:1003100085FFEDCFCE010E940201E9CFDF91CF91A1
:1003200008951F920F920FB60F9211242F933F93AF
:100330008F939F93AF93BF938091C2019091C3011C
:10034000A091C401B091C5013091C10123E0230FF8
:100350002D3758F50196A11DB11D2093C101809341
:10036000C2019093C301A093C401B093C5018091D1
:10037000C6019091C701A091C801B091C901019631
:10038000A11DB11D8093C6019093C701A093C80120
:10039000B093C901BF91AF919F918F913F912F91E0
:1003A0000F900FBE0F901F90189526E8230F02960E
:1003B000A11DB11DD2CF1F920F920FB60F92112423
:1003C0002F933F934F935F936F937F938F939F935D
:1003D000AF93BF93EF93FF9384E291E00E940201F9
:1003E000FF91EF91BF91AF919F918F917F916F910D
:1003F0005F914F913F912F910F900FBE0F901F90E3
:1004000018951F920F920FB60F9211242F938F936E
:100410009F93EF93FF93E0913401F0913501808138
:10042000E0913A01F0913B0182FD1BC090818091E7
:100430003D018F5F8F7320913E01821741F0E09163
:100440003D01F0E0EC5DFE4F958F80933D01FF9103
:10045000EF919F918F912F910F900FBE0F901F9052
:1004600018958081F4CF789484B5826084BD84B57A
:10047000816084BD85B5826085BD85B5816085BD9F
:1004800080916E00816080936E0010928100809157
:1004900081008260809381008091810081608093DF
:1004A0008100809180008160809380008091B10004
:1004B00084608093B1008091B00081608093B0002F
:1004C00080917A00846080937A0080917A008260C3
:1004D00080937A0080917A00816080937A00809185
:1004E0007A00806880937A001092C100E091340114
:1004F000F091350182E08083E0913001F09131018B
:100500001082E0913201F09133018FEC80831092E0
:100510003C01E0913801F091390186E08083E0915F
:100520003601F0913701808180618083E09136014E
:10053000F0913701808188608083E0913601F091ED
:100540003701808180688083E0913601F091370126
:1005500080818F7D8083C0E0D0E04DE050E062E19B
:1005600071E084E291E00E94840042E050E060E2A9
:1005700071E084E291E00E9484000E945F004B01E0
:100580005C0188EEC82E83E0D82EE12CF12C0E946D
:100590005F00681979098A099B09683E73408105E3
:1005A0009105A8F321E0C21AD108E108F10888EE0C
:1005B000880E83E0981EA11CB11CC114D104E10473
:1005C000F10429F7209749F20E94EE00882329F2CE
:1005D0000E940000C2CFE4E2F1E01382128288EEB2
:1005E00093E0A0E0B0E084839583A683B78384E0A2
:1005F00091E09183808385EC90E09587848784ECFB
:1006000090E09787868780EC90E0918B808B81ECDF
:1006100090E0938B828B82EC90E0958B848B86ECC0
:1006200090E0978B868B118E128E138E148E089508
:10063000EE0FFF1F0590F491E02D0994F894FFCF81
:100640000000000024018400B1007101E200C0003C
:10065000D4005068616D205472692044756E670043
:040660000D0A00007F
:00000001FF
